:0200000490006A
:1000000058A50224B102009031900090F98B009025
:100010002D9000904506009023C100900000000044
:10002000000000000000000000000000DDA50090BE
:10003000610C009000000000339000904DA60090ED
:10004000CB020090CB020090CB020090CB0200903C
:10005000CB020090CB020090CB020090CB0200902C
:10006000CB020090CB020090CB020090CB0200901C
:10007000CB020090CB020090CB020090CB0200900C
:10008000CB020090CB020090CB020090CB020090FC
:10009000CB020090CB020090CB020090CB020090EC
:1000A000CB020090CB020090CB020090CB020090DC
:1000B000CB020090CB020090CB020090CB020090CC
:1000C000CB020090CB020090CB020090CB020090BC
:1000D000CB020090CB020090CB020090CB020090AC
:1000E000CB020090CB02009000000000CB020090F9
:1000F000CB020090CB020090CB020090CB0200908C
:10010000CB02009049950090CB020090CB0200906A
:10011000CB020090CB020090CB020090CB0200906B
:10012000CB020090CB020090CB0200908D07009094
:10013000CB020090CB020090CB020090CB0200904B
:1001400000000000000000000000000000000000AF
:10015000CB020090CB020090CB020090CB0200902B
:10016000CB020090CB020090CB020090CB0200901B
:10017000CB020090CB020090CB020090CB0200900B
:10018000CB020090CB020090CB020090CB020090FB
:10019000CB020090CB020090CB020090CB020090EB
:1001A000CB020090CB020090CB020090CB020090DB
:1001B000CB020090CB020090CB020090CB020090CB
:1001C000CB020090CB020090CB020090CB020090BB
:1001D000CB020090CB020090CB020090CB020090AB
:1001E000CB020090CB020090CB020090CB0200909B
:1001F000CB020090CB020090CB020090CB0200908B
:10020000CB020090CB020090CB020090CB0200907A
:10021000CB020090CB020090CB020090CB0200906A
:10022000CB020090CB020090CB02009000000000B7
:10023000CB020090CB02009000000000CB020090A7
:10024000CB020090CB020090CB020090CB0200903A
:10025000CB020090CB020090CB020090CB0200902A
:10026000CB020090CB020090CB020090CB0200901A
:10027000CB020090CB020090CB0200900000000067
:10028000CB020090CB020090CB0200900000000057
:1002900000000000CB020090DFF810D000F00AF957
:1002A00000480047F1F50090AFF3008058A5022404
:1002B0000648804706480047FEE7FEE7FEE7FEE700
:1002C000FEE7FEE7FEE7FEE7FEE7FEE721A7009078
:1002D000990200902DE9F05F0546002092469B466A
:1002E00088460646814640241BE02846414647464C
:1002F000224600F0CFF853465A46C01A914110D317
:1003000011461846224600F016F82D1A67EB010830
:100310004F4622460120002100F00DF817EB00099E
:100320004E41201EA4F10104DFDC484631462A4636
:100330004346BDE8F09F202A04DB203A00FA02F190
:10034000002070479140C2F1200320FA03F31943C3
:1003500090407047202A06DBCB17203A41FA02F082
:1003600043EAE07306E041FA02F3D040C2F1200212
:100370009140084319467047A0F14101192900D85E
:100380002030704710B5431A934209D28318881859
:1003900003E010F8011D03F8011D521EF9D210BD33
:1003A00040EA01039B0703D009E008C9121F08C0F7
:1003B000042AFAD203E011F8013B00F8013B521E77
:1003C000F9D210BDD2B201E000F8012B491EFBD2D8
:1003D00070470022F6E710B513460A460446194650
:1003E000FFF7F0FF204610BD10B5044604E00B787F
:1003F00000F8013B03B1491C521EF8D2204610BD43
:1004000010B5002200E0521C835C8C5CA34201D139
:10041000002BF8D1D8B2E1B2401A10BD30B5044675
:100420000020034600E05B1C934203D2E05CCD5CFD
:10043000401BF8D030BD0022CBB20178994200D1E8
:100440000246401C0029F8D11046704710B54843B9
:1004500004460BF0FDFE002805D00021002C02D040
:10046000641E0155FAE710BD30B50B460146002069
:100470002022012409E021FA02F59D4205D303FA66
:1004800002F5491B04FA02F52844151EA2F10102E7
:10049000F1DC30BD202A04DB203A21FA02F00021F1
:1004A000704721FA02F3D040C2F120029140084384
:1004B00019467047064C074D06E0E06840F001031E
:1004C00094E8070098471034AC42F6D3FFF7E8FEF3
:1004D000F0F8039010F9039070B58C1810F8015BD8
:1004E00015F0070301D110F8013B2A1106D110F8CD
:1004F000012B03E010F8016B01F8016B5B1EF9D1D1
:100500002B0705D40023521E0DD401F8013BFAE756
:1005100010F8013BCB1A921C03E013F8015B01F8C1
:10052000015B521EF9D5A142D8D3002070BD000056
:1005300010B50024104811490860002048600021CF
:100540000E4881604FF48041C160002101610821A3
:10055000416100F015F8094808F0CAF800B100BF81
:100560003CB90648C16807F0B9FD08B1012400E0B4
:100570000024204610BD00000070005278C1002405
:1005800000B587B000BF2C48006840F480302A498D
:1005900008600846006800F48030019000BF00BF8A
:1005A00000BF25480C30006840F0040022490C319F
:1005B00008600846006800F00400019000BF00BF1A
:1005C00000BF0846006840F0080008600846006860
:1005D00000F00800019000BF00BF4FF4F8500290F7
:1005E0000220039000200490032005900C20069028
:1005F00002A9124804F0A8FD0420029002200390F2
:1006000000200490032005900C20069002A90C48BD
:1006100004F09AFD0BF088FD00221146312005F010
:1006200029F9312005F016F900220E21501E05F09F
:1006300021F907B000BD0000D44402580008025858
:10064000000C025800BFFEE710B508F019FF08F0D3
:10065000C9FE10BD0148406870470000001000E06E
:100660002DE9F0410746002606F0D8FD0F49B0FB02
:10067000F1F000FB07F800BFFFF7ECFF054611E0C3
:10068000FFF7E8FF0446AC420CD0AC4202D9601B35
:10069000064403E0C5F1FF302044064425464645A4
:1006A00000D300E0ECE700BFBDE8F08140420F005E
:1006B00000B5B5B000BF3148006840F001002F49D7
:1006C00008600846006800F00100009000BF00BF0D
:1006D00000BF0846006840F0010008600846006856
:1006E00000F00100009000BF00BF01200190002039
:1006F0001F9001A805F034FE00BF204810300068AC
:1007000040F010001D49103108600846006800F0F4
:100710001000009000BF00BF4FF400703090022026
:10072000319001203290022033900720349030A97C
:10073000134804F009FD4FF4806030900720349096
:1007400030A90F4804F000FD0E480F4908604FF42F
:10075000E130486000210C488160C16001610C21DA
:10076000416100218161C161016200200649886206
:10077000084608F09AF935B000BD0000E044025880
:100780000000025800100140A0C0002410B53648F7
:1007900000683649884204D93548006800F0006096
:1007A00027E03148006831496039884205D92F482F
:1007B000B438006800F000601BE02B4800682D4949
:1007C000884205D92948B838006800F0006010E078
:1007D0002548006827496039884205D92548B83836
:1007E000406800F0006004E02248B838006800F07B
:1007F0000060C0B31C4800681C49884205D94FF00E
:1008000000601B49091D086027E017480068174968
:100810006039884205D94FF000601449AC3908604E
:100820001BE0114800681349884205D94FF0006069
:100830000E49B039086010E00B4800680D49603976
:10084000884205D94FF000600A49B839C86004E011
:100850004FF000600749B83988600748006810B158
:1008600005480068804710BD8CF40024B80402409D
:1008700000540258B80002401CA000240146374A28
:100880000868904249D0354A18320868904244D0EE
:10089000324A3032086890423FD0304A48320868C5
:1008A00090423AD02D4A60320868904235D02B4AA7
:1008B00078320868904230D0284A903208689042D6
:1008C0002BD0264AA8320868904226D0244A0868CD
:1008D000904222D0224A1832086890421DD0204A05
:1008E00030320868904218D01D4A48320868904259
:1008F00013D01B4A6032086890420ED0184A7832F2
:100900000868904209D0164A90320868904204D094
:10091000134AA8320868904201D1012000E000206B
:10092000B0B10A78103A1823B2FBF3F000F00702D6
:100930000C4B9A5CCA65032805D90A686FF3090253
:10094000121D8A6503E00A686FF309028A6503E0F5
:10095000086820F0FF008865886D7047100002402D
:1009600010040240462C019010B502682B4C03681D
:10097000A34222D0294C14340368A3421DD0274C33
:1009800028340368A34218D0244C3C340368A342A3
:1009900013D0224C50340368A3420ED01F4C643451
:1009A0000368A34209D01D4C78340368A34204D0E5
:1009B0001A4C8C340368A34201D1012300E00023C8
:1009C0008BB10378083B1424B3FBF4F1144B03EB15
:1009D00081030366124B8033436601F01F04012339
:1009E000A340836618E00378103B1824B3FBF4F1AE
:1009F0000C4B9A4204D80B4BA83B9A4200D30831C7
:100A0000094B03EB81030366074B8033436601F018
:100A10001F040123A340836610BD00000854025840
:100A200000580258B8040240000802400179A9B3F6
:100A3000082940D8204B02689A4222D01E4B14331A
:100A400002689A421DD01C4B283302689A4218D083
:100A5000194B3C3302689A4213D0174B503302684B
:100A60009A420ED0144B643302689A4209D0124B5A
:100A7000783302689A4204D00F4B8C3302689A4252
:100A800001D1012200E000224AB14A1E0B4B03EBC8
:100A90008202C266094A4032026708E00BE04A1E41
:100AA000074B03EB8202C266054A403202674A1EC8
:100AB0000123934043677047085402580059025875
:100AC00000090240014600208A69D2B98A6A32B11F
:100AD000012A0DD0022A03D0032A10D10EE000BF54
:100AE000CA6A02F08072B2F1807F00D1012007E073
:100AF000CA6AB2F1C07F00D1012001E000E000BF6E
:100B000036E08A69B2F5005F1BD18A6A32B1012AE8
:100B100007D0022A03D0032A11D10AE000BF012026
:100B20000EE0CA6A02F08072B2F1807F00D101202B
:100B300006E0CA6AB2F1C07F00D1012000E000BF28
:100B400016E08A6A32B1012A05D0022A04D0032AAB
:100B50000CD103E000BF00BF012008E0CA6A02F028
:100B60008072B2F1807F00D1012000E000BF00BFA1
:100B70007047000030B5384D0468AC4249D0364D5E
:100B800018350468AC4244D0334D30350468AC426B
:100B90003FD0314D48350468AC423AD02E4D6035D7
:100BA0000468AC4235D02C4D78350468AC4230D066
:100BB000294D90350468AC422BD0274DA8350468E8
:100BC000AC4226D0254D0468AC4222D0234D1835C6
:100BD0000468AC421DD0214D30350468AC4218D0B9
:100BE0001E4D48350468AC4213D01C4D6035046876
:100BF000AC420ED0194D78350468AC4209D0174D7F
:100C000090350468AC4204D0144DA8350468AC4259
:100C100001D1012400E0002474B104686360846899
:100C2000402C04D10468A2600468E16012E004680A
:100C3000A1600468E2600DE0046863608468402C91
:100C400004D10468A2600468E16003E00468A16064
:100C50000468E26030BD0000100002401004024051
:100C6000704730B504460D4600222946204600F064
:100C700001F830BDF0B50346012500241148C07CC1
:100C800003281CDC00200F4EF67C0E4FB85538466A
:100C9000C67C001D40F82630001FC67C10308255EF
:100CA0003E46F07C461CFE74044604F13000087099
:100CB0003A2048702F2088700020C87000252846F0
:100CC000F0BD0000440501242DE9FF4F81B004462A
:100CD000164699460E9F06FB09F000FB07F54FF0FC
:100CE000FF30B0FBF7F0B04203D2002005B0BDE802
:100CF000F08F4FF0FF30B0FBF9F106FB07F08142B7
:100D000001D20020F2E7E06DA84227D2AA46D4F82B
:100D10005880CDF800805146404610F0BDFF834614
:100D2000BAF1000F05D0BBF1000F02D100980BF013
:100D300061FA00BFC4F858B0BBF1000F0DD1A8464E
:100D4000B8F1000F01D108F1010840460BF080FA1C
:100D5000A06510B90020E065C8E7E5654B4632465E
:100D6000009704F1580002990DF0D1FD2A46204663
:100D7000A16D00F00FFC0120B8E72DE9F041074616
:100D80000C4694F8500000F03F056619802006F8E4
:100D9000010BC5F13705002D0BDA05F108013046CE
:100DA000FFF717FB214604F1400000F03DF826460E
:100DB000382529463046FFF70CFB206DC000A063A4
:100DC000606DC000216D40EA5170E063214604F17E
:100DD000400000F029F8102204F140013846FFF7E6
:100DE000D1FAA06D28B1A06D0BF004FA0020A06527
:100DF000E06560212046FFF7ECFABDE8F0810000D5
:100E000007490164074A4264CA438264054AD243DF
:100E1000C26400210165002242658165C165704799
:100E20000123456789ABCDEFF0B505460C46286830
:100E30006968AA68EB6882EA03060E405E4027688C
:100E40003E44FE4F3E443044C60146EA50667018A8
:100E500081EA02060640564067683E44F84F3E4429
:100E600033441E0346EA1356331880EA01061E4037
:100E70004E40A7683E44F34F3E443244560446EA8F
:100E8000D236F21883EA000616404640E7683E4430
:100E9000ED4F3E4431448E0546EA9126B11882EA70
:100EA00003060E405E4027693E44E84F3E4430440E
:100EB000C60146EA5066701881EA020606405640AE
:100EC00067693E44E24F3E4433441E0346EA1356EC
:100ED000331880EA01061E404E40A7693E44DD4FAC
:100EE0003E443244560446EAD236F21883EA0006FB
:100EF00016404640E7693E44D74F3E4431448E0594
:100F000046EA9126B11882EA03060E405E40276A3F
:100F10003E44D24F3E443044C60146EA5066701803
:100F200081EA020606405640676A3E44CC4F3E4482
:100F300033441E0346EA1356331880EA01061E4066
:100F40004E40A76A3E44A6F524464F3E324456041E
:100F500046EAD236F21883EA000616404640E76AAF
:100F60003E44C04F3E4431448E0546EA9126B118B6
:100F700082EA03060E405E40276B3E44BA4F3E4471
:100F80003044C60146EA5066701881EA02060640FF
:100F90005640676B3E44B54F3E4433441E0346EA19
:100FA0001356331880EA01061E404E40A76B3E449C
:100FB000AF4F3E443244560446EAD236F21883EA32
:100FC000000616404640E76B3E44AA4F3E4431447B
:100FD0008E0546EA9126B11881EA02061E40564067
:100FE00067683E44A44F3E443044460146EAD0661A
:100FF000701880EA010616404E40A7693E449F4F94
:101000003E4433445E0246EAD356331883EA000670
:101010000E404640E76A3E44994F3E4432449603B0
:1010200046EA9246F21882EA030606405E402768C6
:101030003E44944F3E4431440E0546EA1136B11801
:1010400081EA02061E40564067693E448E4F3E4488
:101050003044460146EAD066701880EA0106164020
:101060004E40A76A3E44894F3E4433445E0246EAFE
:10107000D356331883EA00060E404640E76B3E44E1
:10108000834F3E443244960346EA9246F21882EA7F
:10109000030606405E4027693E447E4F3E4431448D
:1010A0000E0546EA1136B11881EA02061E40564086
:1010B000676A3E44784F3E443044460146EAD06673
:1010C000701880EA010616404E40A76B3E44734FED
:1010D0003E4433445E0246EAD356331883EA0006A0
:1010E0000E404640E7683E446D4F3E44324496030E
:1010F00046EA9246F21882EA030606405E40276AF4
:101100003E44684F3E4431440E0546EA1136B1185C
:1011100081EA02061E405640676B3E44624F3E44E1
:101120003044460146EAD066701880EA010616404F
:101130004E40A7683E445D4F3E4433445E0246EA5B
:10114000D356331883EA00060E404640E7693E4412
:10115000574F3E443244960346EA9246F21882EADA
:10116000030606405E40276B3E44524F3E443144E6
:101170000E0546EA1136B11881EA02065E4067693B
:101180003E444D4F3E443044060146EA1076701806
:1011900080EA01065640276A3E44484F3E443344A5
:1011A000DE0246EA5356331883EA00064E40E76AE9
:1011B0003E44434F3E443244160446EA1246F21877
:1011C00082EA03064640A76B3E443E4F3E4431440C
:1011D000CE0546EA5126B11881EA02065E406768EC
:1011E0003E44394F3E443044060146EA10767018BA
:1011F00080EA0106564027693E44344F3E4433445A
:10120000DE0246EA5356331883EA00064E40E76989
:101210003E442F4F3E443244160446EA1246F2182A
:1012200082EA03064640A76A3E442A4F3E443144C0
:10123000CE0546EA5126B1184EE0000078A46AD7E0
:1012400056B7C7E8DB702024EECEBDC1AF0F7CF5EA
:101250002AC68747134630A8019546FDD89880696D
:10126000AFF7448BBED75C892211906B937198FDC8
:101270008E4379A62108B44962251EF640B340C0CA
:10128000515A5E26AAC7B6E95D102FD65314440200
:1012900081E6A1D8C8FBD3E7E6CDE121D60737C365
:1012A000870DD5F4ED145A4505E9E3A9F8A3EFFC41
:1012B000D9026F678A4C2A8D4239FAFF81F671870D
:1012C00022619D6D0C38E5FD44EABEA4A9CFDE4B3A
:1012D000604BBBF670BCBFBE81EA02065E40676B26
:1012E0003E44944F3E443044060146EA107670185E
:1012F00080EA0106564027683E448F4F3E443344FF
:10130000DE0246EA5356331883EA00064E40E76889
:101310003E448A4F3E443244160446EA1246F218CE
:1013200082EA03064640A7693E44854F3E44314465
:10133000CE0546EA5126B11881EA02065E40676A88
:101340003E44804F3E443044060146EA1076701811
:1013500080EA01065640276B3E447B4F3E443344AF
:10136000DE0246EA5356331883EA00064E40E76B26
:101370003E44764F3E443244160446EA1246F21882
:1013800082EA03064640A7683E44714F3E4431441A
:10139000CE0546EA5126B11861EA03065640276891
:1013A0003E446C4F3E443044860146EA90667018D5
:1013B00060EA02064E40E7693E44674F3E443344CC
:1013C0009E0246EA9356331863EA01064640A76B2D
:1013D0003E44624F3E443244D60346EA5246F21837
:1013E00062EA00065E4067693E445D4F3E44314418
:1013F0004E0546EAD126B11861EA03065640276B2E
:101400003E44584F3E443044860146EA9066701888
:1014100060EA02064E40E7683E44534F3E44334480
:101420009E0246EA9356331863EA01064640A76ACD
:101430003E444E4F3E443244D60346EA5246F218EA
:1014400062EA00065E4067683E44494F3E443144CC
:101450004E0546EAD126B11861EA03065640276ACE
:101460003E44444F3E443044860146EA906670183C
:1014700060EA02064E40E76B3E443F4F3E44334431
:101480009E0246EA9356331863EA01064640A7696E
:101490003E443A4F3E443244D60346EA5246F2189E
:1014A00062EA00065E40676B3E44354F3E4431447D
:1014B0004E0546EAD126B11861EA0306564027696F
:1014C0003E44304F3E443044860146EA90667018F0
:1014D00060EA02064E40E76A3E442B4F3E443344E6
:1014E0009E0246EA9356331863EA01064640A7680F
:1014F0003E44264F3E443244D60346EA5246F21852
:1015000062EA00065E40676A3E44214F3E44314431
:101510004E0546EAD126B1182E6806442E606E6844
:101520000E446E60AE681644AE60EE681E44EE6017
:10153000F0BD0000C67E9B28FA27A1EA8530EFD4D3
:10154000051D880439D0D4D9E599DBE6F87CA21FC3
:101550006556ACC4442229F497FF2A43A72394ABD1
:1015600039A093FCC3595B6592CC0C8F7DF4EFFFDF
:10157000D15D84854F7EA86FE0E62CFE144301A365
:10158000A111084E827E53F735F23ABDBBD2D72A5D
:1015900091D386EB2DE9F04104460F461646256DA2
:1015A000A8192065A84202D2606D401C606505F054
:1015B0003F00C0F14005B54208D904F14001481B85
:1015C00032463946FEF7DEFEBDE8F08104F1400107
:1015D000481B2A463946FEF7D5FE214604F1400055
:1015E000FFF722FC2F44761B0BE0402239462046B1
:1015F000FEF7C8FE214604F14000FFF715FC403716
:10160000403E402EF1D2324639462046FEF7BAFE21
:1016100000BFD9E72DE9F04102460B46002182EADE
:1016200001005940084301D1BDE8F0814FF0FF317E
:1016300082EA01005940084301D10220F4E7002169
:101640000846511A73EB000009DA511C43F10004FB
:1016500000200546D1EB000065EB040101E01046D7
:10166000194602460B46104619464C084FEA30050B
:1016700002460B4645EA020044EA03014FEA9004A1
:1016800044EA817444EA000041EA91014FEA1014EF
:1016900044EA017444EA000041EA11114FEA1024BF
:1016A00044EA016444EA000041EA11214FEA10458E
:1016B00045EA014545EA000041EA114141EA0000DE
:1016C0004C084FEA3005681C44F10001074E084DF4
:1016D0000746A7FB068C01FB06C400FB05443F251B
:1016E00005EA9464034D2C5DA01C9DE7BF5D3DCDD4
:1016F00092A31802D4DA03900146087D00F0070097
:10170000C0F10800704701460020C8608860486149
:1017100008614862401E8862C8620120704710B5A7
:101720000446204600F004F820460AF063FD10BD90
:1017300010B50446206810B120680AF05BFD002057
:1017400020606060E060A060606120612063606391
:101750006062401EA062E06210BD01460A698868AE
:10176000801A4201C86802EBC0004A69801A7047BB
:1017700010B5044620460BF0BBF86069F8B1226949
:10178000216851F8220015E0216AC1F1180120FA00
:1017900001F1C9B2A26981EA12210A4A32F8111094
:1017A0004FF6FF73A26903EA02225140A161216A48
:1017B000083121626269216A9142E5D300BF208B22
:1017C00080B210BD14DD039070B504460D46164678
:1017D0000020E060A060606120614FF40060606004
:1017E000616888000AF034FD2060206808B9002094
:1017F00070BD2563666300206062401EA062E062E7
:101800000120F5E70146087D00F0070008B9012036
:1018100070470020FCE74FF0FF31816270470146BE
:10182000886A704710B538210120FEF70FFE044684
:10183000204610BDF8B504460D461646606A58B1FC
:10184000A06A401C40B1A06AB0EBC60F04D24FF0B2
:10185000FF30A0620020F8BD0BE008226946204658
:1018600000F086F808B90020F5E7009805F8010BAC
:10187000761E16B160690028EFD10EB90120EAE7A3
:101880001EE0A1682069884214D22269511C21619E
:10189000216851F82200010E2970010C6970010ABB
:1018A000A970E8702D1D361F616A11B1A16A203937
:1018B000A16205E020460AF0A9FE08B90020CAE7A7
:1018C000042EDED20BE008226946204600F050F8D4
:1018D00008B90020BFE7009805F8010B761E002E1E
:1018E000F1D10120B7E7F8B507460D4614462CB1F3
:1018F00022466946384600F03BF808B90020F8BD9A
:10190000212C01D3002003E0601E012101FA00F028
:10191000064600987040801B28600120EFE72DE903
:10192000FC478246894616462EB1324669465046E5
:1019300000F0D0F810B90020BDE8FC87412E02D39A
:101940000020014607E0721E01274FF000083846CC
:101950004146FEF7F0FC04460D46DDE900326340E7
:101960006A40181B62EB0502C9E900020120E3E7A7
:101970002DE9F04104460E46154625B90020306099
:101980000120BDE8F081606A68B1A06A401C50B1D6
:10199000A06AA84204D24FF0FF30A0620020F0E716
:1019A000A06A401BA06205E020460AF02FFE08B99D
:1019B0000020E6E72169A068401A4101E06801EBD8
:1019C000C0006169401AA842EED3A168206988422C
:1019D0005DD26069002846D06069C0F120012769A6
:1019E000206850F827206069202804D2277D4FF016
:1019F000FF30F84000E0002003468D420DD24F1B1F
:101A0000202F03D202EA0300F84000E000203060FB
:101A10006069284460610120B3E702EA0300306096
:101A20006D1A2069401C206100206061CDB1C5F1B4
:101A30002000202D02D23768AF4000E00027376039
:101A4000202806D2D4F810C0276857F82C70C74059
:101A500000E00027D6F800C047EA0C073760656150
:101A600000BF01208DE72269206850F82210202D48
:101A700007D2C5F1200021FA00F030606561012035
:101A80007FE731602069401C2061012079E76069AF
:101A900098B12169206850F82100227D4FF0FF3174
:101AA000D14008406169C1F12001491BC840306044
:101AB000606928446061012063E72169206850F86B
:101AC0002100C5F12001C840306060692844606190
:101AD000012056E77CB506460C461546202D1ED93A
:101AE000A5F1200201A93046FFF742FF08B9002006
:101AF0007CBD202269463046FFF73AFF08B9002036
:101B0000F6E700210198C4E900012068C4E900104B
:101B1000D4E90001009A1043C4E900010BE02A4611
:101B200069463046FFF724FF08B90020E0E70021AE
:101B30000098C4E900010120DAE72DE9FF4F85B0E4
:101B400004461F464FF0FF30F8400190DDF8189032
:101B5000DDE9069009EB80000090BFB911E003A910
:101B6000204600F007F918B9002009B0BDE8F08F51
:101B7000039800F001004042039980EA510049F8BF
:101B8000040B00988145EAD30120EEE72569D4F8DB
:101B900008B05D4501D300265CE06069C0F1200813
:101BA000206850F82500217D00FA01FA98E050469F
:101BB00000F00BFB06460290202E11D1464600BFD6
:101BC0006D1C5D4500D347E0206850F825A05046C5
:101BD00000F0FBFA02900298064402982028EFD009
:101BE00002980AFA00FA4FEA4A0AA8EB0600401ED9
:101BF00000F01F0803960198864201D90020B4E73F
:101C0000C7F120002AFA00F6474504D8A8EB0708D8
:101C10000AFA07FA10E06D1C5D4500D32DE020683C
:101C200050F825A0C7F1200080442AFA08F00643A6
:101C3000C8F120000AFA00FA04960398B840049903
:101C400040EA010606F00100404280EA560049F8E9
:101C5000040B45E000BF02E000206061256103A99C
:101C6000204600F087F808B900207EE7039830444A
:101C7000039000208046064602E000206061256156
:101C8000A7EB080204A92046FFF772FE08B900205E
:101C90006BE70498304304900398B840049940EAF5
:101CA000010606F00100404280EA560049F8040BA4
:101CB00000262569D4F808B06069C0F12008606882
:101CC000A84205D9206850F82500217D884000E011
:101CD000002082465D4502D300988145BBD300BFFA
:101CE00000988145FFF463AFB8F1000F04D15D4562
:101CF00002D26D1C4FF02008C8F120006061256100
:101D0000012032E77CB505460C46002000900822F1
:101D100069462846FFF72CFE08B900207CBD082242
:101D200001A92846FFF724FE08B90020F6E7DDE9FF
:101D3000000140EA01200090082201A92846FFF78F
:101D400017FE08B90020E9E7DDE9000140EA01409B
:101D50000090082201A92846FFF70AFE08B90020D2
:101D6000DCE7DDE9000140EA0160009000982060B6
:101D70000120D3E72DE9F04104460D4600202860FC
:101D800064E02EE06069202806D22169206850F8BE
:101D90002100217D884000E000200746AFB1384691
:101DA00000F01CFA0646286830442860761C6069FA
:101DB000304460616069202804D32069401C2061A0
:101DC000002060610120BDE8F08128686169C1F1EF
:101DD0002001084428602069401C206100206061C7
:101DE00000BFA16820698842CCD36169E068B1EB8B
:101DF000C00F25D2E068C7002169206850F8210093
:101E0000C7F120024FF0FF3191400840217D00FAD8
:101E100001F8B8F1000F0CD0404600F0DFF906469B
:101E2000286830442860761C606930446061012075
:101E3000C9E728686169791A08442860676100BFAA
:101E400020460AF0E3FB08B90020BCE799E72DE93A
:101E5000F84381460F4616461D464FF000080822FB
:101E600069464846FFF784FD10B90020BDE8F883B5
:101E70002EB10098C1B22A68501C2860B154009855
:101E800000F0800018B9DDF80080002436E00098EA
:101E900000F0E000C02804D1009800F01F080124E1
:101EA0002CE0009800F0F000E02804D1009800F049
:101EB0000F08022422E0009800F0F800F02804D176
:101EC000009800F00708032418E0009800F0FC00D8
:101ED000F82804D1009800F0030804240EE00098CC
:101EE00000F0FE00FC2804D1009800F00108052451
:101EF00004E04FF0FF3038600120B7E723E008220C
:101F000069464846FFF734FD08B90020AEE72EB118
:101F10000098C1B22A68501C2860B154009800F0A3
:101F2000800018B1009800F0400020B14FF0FF3061
:101F3000386001209AE74FEA8818009800F03F00C7
:101F400040EA0808641E002CD9D1C7F8008001209F
:101F50008CE72DE9F84F8246894690461F4600BF20
:101F6000082269465046FFF703FD10B90020BDE87E
:101F7000F88FB8F1000F06D00098C1B23A68501C33
:101F8000386008F80210009800F0800018B90025A9
:101F9000009C002645E0009800F0E000C02805D134
:101FA000009800F01F04002501263AE0009800F098
:101FB000F000E02805D1009800F00F04002502266B
:101FC0002FE0009800F0F800F02805D1009800F00C
:101FD00007040025032624E0009800F0FC00F82800
:101FE00005D1009800F003040025042619E00098AC
:101FF00000F0FE00FC2805D1009800F00104002547
:1020000005260EE00098FE2803D10024254606266A
:1020100007E04FF0FF31C9F80010C9F804100120A3
:10202000A5E72AE0082269465046FFF7A1FC08B957
:1020300000209CE7B8F1000F06D00098C1B23A68C2
:10204000501C386008F80210009800F0800018B1A9
:10205000009800F0400038B14FF0FF31C9F800108F
:10206000C9F80410012082E7A80140EA9465A401A0
:10207000009800F03F000443761E002ED2D1C9E93B
:102080000045012073E700214162491E81627047CB
:1020900081610269C2614269026270470146C86A91
:1020A000401C18B90020486108617047C86A401C8C
:1020B0008008086191F82C00401C8007C00E486120
:1020C0000120F2E701698900426901EBD201C16296
:1020D00070478162012242627047F8B507460C469C
:1020E00054B3387D00F007068EB1C6F10800A04257
:1020F00002D8C6F1080000E0204605462A46694697
:102100003846FFF735FC08B90020F8BD641BE50828
:1021100045B12946384600F011F808B90020F4E727
:1021200004F007043CB1224669463846FFF720FC1C
:1021300008B90020E9E700BF0120E6E738B504460A
:102140000D46606A58B1A06A401C40B1A06AB0EB6D
:10215000C50F04D24FF0FF30A062002038BD08E068
:10216000082269462046FFF703FC08B90020F5E77E
:102170006D1E15B160690028F2D10DB90120EDE79F
:1021800013E0A1682069884209D22069401C2061BF
:102190002D1F606A48B1A06A2038A06205E0204681
:1021A0000AF034FA08B90020D8E7042DE9D208E093
:1021B000082269462046FFF7DBFB08B90020CDE77F
:1021C0006D1E002DF4D10120C8E710B504460CB9EE
:1021D000202010BD204600F001F8FAE7014608462D
:1021E000B0F1807F04D30D4A02EB1062127813E045
:1021F000B0F5803F05D3094A02EB1042127808324D
:102200000AE0FF2805D9054A02EB102212781032A5
:1022100002E0024A125C18321046704714DB039049
:1022200010B504463C212046FEF7D3F80220207169
:10223000207910B1012805D100E000BF204610F040
:10224000F7FC02E00020206000BF00BF10BD0000CE
:1022500030B5034633E0186882EA1042141227486A
:1022600030F81400D5B2264C34F8154060401C8874
:10227000C4F307246500234C645B60401D78224C46
:1022800034F8154060405C68250E204C34F8154049
:1022900060405C68C4F3074465001D4C645B6040AB
:1022A0009C88C4F3072465001A4C645B60401C7969
:1022B000194D35F8144080EA04020833891E0229BA
:1022C000C9D2C1B1186882EA104214120F4830F81E
:1022D0001400D5B20E4C34F8154060401C88C4F38D
:1022E000072465000B4C645B60401C780A4D35F890
:1022F000144080EA0402104630BD000014EB039045
:1023000014E9039014E7039014E5039014E3039099
:1023100014E1039014DF039014DD039010B502461E
:10232000002004E012F8013B4340034CE05C0B1E2C
:10233000A1F10101F6D110BD14DC03902DE9F047A5
:102340000646884691461D464746B9F1050F66D2B6
:10235000DFE809F0030A182C45004FEA88023146ED
:102360002846FEF70FF85BE0002408E056F824103A
:10237000601E55F82000084445F82400641CBC4247
:10238000F4DB4DE000240EE056F82410601E55F8F2
:102390002000022202FB0011A01E55F82000081A9E
:1023A00045F82400641CBC42EEDB39E0002413E055
:1023B00056F82410601E55F82000032202FB00117D
:1023C000A01E55F8200002FB1011E01E55F8200059
:1023D000084445F82400641CBC42E9DB20E00024EA
:1023E0001AE056F82410601E55F82000042202FB63
:1023F0000011A01E55F82000062202FB1011E01E5D
:1024000055F82000042202FB0011201F55F820007F
:10241000081A45F82400641CBC42E2DB00E000BF5F
:1024200000BFBDE8F0872DE9F04706468846914693
:102430001D464746B9F1050F7BD2DFE809F0030AD4
:10244000193050004FEA880231462846FDF79AFFBE
:1024500070E0002409E056F82400611E55F82110B0
:10246000401845F8240004F10104BC42F3DB61E0AC
:10247000002411E056F824000222611E55F82110B4
:1024800082FB01124118A4F1020055F82000081A3D
:1024900045F8240004F10104BC42EBDB4AE00024CF
:1024A0001AE056F824000322611E55F8211082FB21
:1024B000011240184FF00302A4F1020155F8211057
:1024C00082FB0112411AA4F1030055F820000818FC
:1024D00045F8240004F10104BC42E2DB2AE00024B8
:1024E00023E056F824000422611E55F8211082FBD7
:1024F000011241184FF00602A4F1020055F8200025
:1025000082FB0002081A4FF00402A4F1030155F8FF
:10251000211082FB01124118A4F1040055F820009B
:10252000081A45F8240004F10104BC42D9DB01E09B
:10253000FFE700BF00BFBDE8F0872DE9F04F04467C
:102540000D462946052A7DD2DFE802F00310275206
:102550009100002007E054F82060F71703EBC00C4F
:10256000CCE90067401C8842F5DBD0E0002011E098
:1025700054F82060F717A0F1010C03EBCC08D8E960
:1025800000C816EB0C0647EB080703EBC00CCCE9C0
:102590000067401C8842EBDBB9E0002025E054F8DE
:1025A0002060F717A0F1010C03EBCC08D8E900C8B4
:1025B0004FF0020A4FF0000BACFB0A9E08FB0AE842
:1025C0000CFB0B8C16EB090647EB0C07A0F1020C79
:1025D00003EBCC0CDCE9008CB6EB080667EB0C07D0
:1025E00003EBC00CCCE90067401C8842D7DB8EE0CF
:1025F000002039E054F82060F717A0F1010C03EB3C
:10260000CC0C4FF0030A4FF0000BDCE90089A8FB6B
:102610000ACE09FB0AE908FB0B9816EB0C0647EB00
:102620000807A0F1020C03EBCC0CDCE90098A9FB35
:102630000ACE08FB0AE809FB0B88B1463E46B9EB17
:102640000C0700E062E066EB0806A0F1030C03EB68
:10265000CC08D8E900C817EB0C0746EB080603EBDB
:10266000C00CCCE90076401C8842C3DB4FE0002060
:1026700049E054F82060471E03EBC7074FF0040AF7
:10268000D7E9008B0027A8FB0A9E0BFB0AEA08FB90
:1026900007A816EB090948EBE677A0F1020603EB61
:1026A000C6064FF0060AD6E900BC4FF00006ABFBA9
:1026B0000A8E0CFB0AEC0BFB06CCB9EB080867EBA7
:1026C0000C06C71E03EBC70CDCE9007C4FF00409C5
:1026D0004FF0000BA7FB09AE0CFB09EC07FB0BCC82
:1026E00018EB0A0746EB0C06A0F1040C03EBCC0C2C
:1026F000DCE9008CB7EB080766EB0C0603EBC00CBB
:10270000CCE90076401C8842B3DB00E000BF00BF8C
:10271000BDE8F08F10B50446206810B1206809F0BC
:1027200069FD606810B1606809F064FD204600F042
:1027300028F810BD70B504460D46A068A84203D322
:10274000206808B16068D0B90122AA4091002068D1
:102750000FF0B5FB206008B9002070BD0122AA402F
:10276000910060680FF0ABFB606008B90020F4E7EF
:102770000122AA4091006068FDF72BFEA5600120B0
:10278000EBE7002101604160816070472DE9F04175
:1027900004460D46904642462946204600F005F87C
:1027A0000646FEF737FFBDE8F0812DE9F74F824678
:1027B0008B46AAF1010201264FF000093046494636
:1027C000FDF7B9FD074688460024002508E05BF8C0
:1027D0002500002801DB014600E041420C446D1C4D
:1027E00002988542F3D30021A7FB040208FB0422D0
:1027F00007FB012103B0BDE8F08F2DE9FF4F85B045
:1028000082469B46AAF10102012400252046294662
:10281000FDF791FD074688465046DDE90612FFF7B1
:10282000C4FFA31EA0FB036C01FB03C100FB031943
:102830005A4630464946FDF78DFDA31EA0FB032EE8
:1028400001FB03E100FB0310CDE90220DDE90201F9
:10285000381848EB0102CDE90002DDE90001FEF77E
:10286000D9FE09B0BDE8F08F2DE9F04105460E46CE
:10287000DDE906740C2B73D8082B72D90A2B71D999
:102880000C2B71D1002068E00021A0F10C0C54F851
:102890002CC0D2F82C8008FB0C11A0F10B0C54F8C2
:1028A0002CC0D2F8288008FB0C11A0F10A0C54F8B7
:1028B0002CC0D2F8248008FB0C11A0F1090C54F8AC
:1028C0002CC0D2F8208008FB0C11A0F1080C54F8A1
:1028D0002CC0D2F81C8008FB0C11A0F1070C54F896
:1028E0002CC0D2F8188008FB0C11A0F1060C54F88B
:1028F0002CC0D2F8148008FB0C11A0F1050C54F880
:102900002CC0D2F8108008FB0C11A0F1040C54F874
:102910002CC0D2F80C8008FB0C11A0F1030C54F869
:102920002CC0D2F8088008FB0C11A0F1020C54F85E
:102930002CC0D2F8048008FB0C11A0F1010C54F853
:102940002CC0D2F8008008FB0C1155F8208041FA09
:1029500007FCC44444F820C0401CB04294DBF5E3BB
:10296000BEE21DE166E0FFE7002060E00021A0F18B
:102970000B0C54F82CC0D2F8288008FB0C11A0F1E5
:102980000A0C54F82CC0D2F8248008FB0C11A0F1DA
:10299000090C54F82CC0D2F8208008FB0C11A0F1CF
:1029A000080C54F82CC0D2F81C8008FB0C11A0F1C4
:1029B000070C54F82CC0D2F8188008FB0C11A0F1B9
:1029C000060C54F82CC0D2F8148008FB0C11A0F1AE
:1029D000050C54F82CC0D2F8108008FB0C11A0F1A3
:1029E000040C54F82CC0D2F80C8008FB0C11A0F198
:1029F000030C54F82CC0D2F8088008FB0C11A0F18D
:102A0000020C54F82CC0D2F8048008FB0C11A0F181
:102A1000010C54F82CC0D2F8008008FB0C1155F8BA
:102A2000208041FA07FCC44444F820C0401CB04256
:102A30009CDB8BE30A2B5DD1002058E00021A0F144
:102A40000A0C54F82CC0D2F8248008FB0C11A0F119
:102A5000090C54F82CC0D2F8208008FB0C11A0F10E
:102A6000080C54F82CC0D2F81C8008FB0C11A0F103
:102A7000070C54F82CC0D2F8188008FB0C11A0F1F8
:102A8000060C54F82CC0D2F8148008FB0C11A0F1ED
:102A9000050C54F82CC0D2F8108008FB0C11A0F1E2
:102AA000040C54F82CC0D2F80C8008FB0C11A0F1D7
:102AB000030C54F82CC0D2F8088008FB0C11A0F1CC
:102AC000020C54F82CC0D2F8048008FB0C11A0F1C1
:102AD000010C54F82CC0D2F8008008FB0C1155F8FA
:102AE000208041FA07FCC44444F820C0401CB04296
:102AF000A4DB2BE3002050E00021A0F1090C54F8E6
:102B00002CC0D2F8208008FB0C11A0F1080C54F85E
:102B10002CC0D2F81C8008FB0C11A0F1070C54F853
:102B20002CC0D2F8188008FB0C11A0F1060C54F848
:102B30002CC0D2F8148008FB0C11A0F1050C54F83D
:102B40002CC0D2F8108008FB0C11A0F1040C54F832
:102B50002CC0D2F80C8008FB0C11A0F1030C54F827
:102B60002CC0D2F8088008FB0C11A0F1020C54F81C
:102B70002CC0D2F8048008FB0C11A0F1010C54F811
:102B80002CC0D2F8008008FB0C1155F8208041FAC7
:102B900007FCC44444F820C0401CB042ACDBD5E282
:102BA000042B7DD9062B7CD9082B4DD1002048E081
:102BB0000021A0F1080C54F82CC0D2F81C8008FBAE
:102BC0000C11A0F1070C54F82CC0D2F8188008FBA7
:102BD0000C11A0F1060C54F82CC0D2F8148008FB9C
:102BE0000C11A0F1050C54F82CC0D2F8108008FB91
:102BF0000C11A0F1040C54F82CC0D2F80C8008FB86
:102C00000C11A0F1030C54F82CC0D2F8088008FB7A
:102C10000C11A0F1020C54F82CC0D2F8048008FB6F
:102C20000C11A0F1010C54F82CC0D2F8008008FB64
:102C30000C1155F8208041FA07FCC44444F820C028
:102C4000401CB042B4DB81E2002043E00021A0F14F
:102C5000070C54F82CC0D2F8188008FB0C11A0F116
:102C6000060C54F82CC0D2F8148008FB0C11A0F10B
:102C7000050C54F82CC0D2F8108008FB0C11A0F100
:102C8000040C54F82CC0D2F80C8008FB0C11A0F1F5
:102C9000030C54F82CC0D2F8088008FB0C1101E09A
:102CA00091E01AE0A0F1020C54F82CC0D2F8048094
:102CB00008FB0C11A0F1010C54F82CC0D2F80080D4
:102CC00008FB0C1155F8208041FA07FCC44444F875
:102CD00020C0401CB042B9DB38E2062B3DD10020B9
:102CE00038E00021A0F1060C54F82CC0D2F8148072
:102CF00008FB0C11A0F1050C54F82CC0D2F8108080
:102D000008FB0C11A0F1040C54F82CC0D2F80C8074
:102D100008FB0C11A0F1030C54F82CC0D2F8088069
:102D200008FB0C11A0F1020C54F82CC0D2F804805E
:102D300008FB0C11A0F1010C54F82CC0D2F8008053
:102D400008FB0C1155F8208041FA07FCC44444F8F4
:102D500020C0401CB042C4DBF8E1002030E000217C
:102D6000A0F1050C54F82CC0D2F8108008FB0C110F
:102D7000A0F1040C54F82CC0D2F80C8008FB0C1104
:102D8000A0F1030C54F82CC0D2F8088008FB0C11F9
:102D9000A0F1020C54F82CC0D2F8048008FB0C11EE
:102DA000A0F1010C54F82CC0D2F8008008FB0C11E3
:102DB00055F8208041FA07FCC44444F820C0401C68
:102DC000B042CCDBC2E1022B55D9042B2DD100201F
:102DD00028E00021A0F1040C54F82CC0D2F80C809B
:102DE00008FB0C11A0F1030C54F82CC0D2F8088099
:102DF00008FB0C11A0F1020C54F82CC0D2F804808E
:102E000008FB0C11A0F1010C54F82CC0D2F8008082
:102E100008FB0C1155F8208041FA07FCC44444F823
:102E200020C0401CB042D4DB90E1002020E0002113
:102E3000A0F1030C54F82CC0D2F8088008FB0C1148
:102E4000A0F1020C54F82CC0D2F8048008FB0C113D
:102E5000A0F1010C54F82CC0D2F8008008FB0C1132
:102E600055F8208041FA07FCC44444F820C0401CB7
:102E7000B042DCDB6AE1022B1DD1002018E000210A
:102E8000A0F1020C54F82CC0D2F8048008FB0C11FD
:102E9000A0F1010C54F82CC0D2F8008008FB0C11F2
:102EA00055F8208041FA07FCC44444F820C0401C77
:102EB000B042E4DB4AE100200FE0A0F1010854F841
:102EC0002880D2F800C00CFB08FC4CFA07FC55F82F
:102ED0002080C44444F820C0401CB042EDDB35E102
:102EE000002030E10021A3F10D0CBCF1140F7CD2C5
:102EF000DFE80CF0B7AEA59C938A81766D645B52D7
:102F00004940372E251C130AA0F1200C54F82CC080
:102F1000D2F87C8008FB0C1100BFA0F11F0C54F804
:102F20002CC0D2F8788008FB0C1100BFA0F11E0C59
:102F300054F82CC0D2F8748008FB0C1100BFA0F12B
:102F40001D0C54F82CC0D2F8708008FB0C1100BF87
:102F5000A0F11C0C54F82CC0D2F86C8008FB0C11AA
:102F600000BFA0F11B0C54F82CC0D2F8688008FBFD
:102F70000C1100BFA0F11A0C54F82CC0D2F86480D8
:102F800008FB0C1100BFA0F1190C54F82CC0D2F8AA
:102F9000608008FB0C1100BFA0F1180C54F82CC085
:102FA000D2F85C8008FB0C1100BFA0F1170C54F89C
:102FB0002CC0D2F8588008FB0C1100BFA0F1160CF1
:102FC00054F82CC0D2F8548008FB0C1100BFA0F1BB
:102FD000150C54F82CC0D2F8508008FB0C1100BF1F
:102FE000A0F1140C54F82CC000E0A3E0D2F84C80FF
:102FF00008FB0C1100BFA0F1130C54F82CC0D2F840
:10300000488008FB0C1100BFA0F1120C54F82CC032
:10301000D2F8448008FB0C1100BFA0F1110C54F849
:103020002CC0D2F8408008FB0C1100BFA0F1100C9E
:1030300054F82CC0D2F83C8008FB0C1100BFA0F162
:103040000F0C54F82CC0D2F8388008FB0C1100BFCC
:10305000A0F10E0C54F82CC0D2F8348008FB0C11EF
:1030600000BFA0F10D0C54F82CC0D2F8308008FB42
:103070000C11A0F10C0C54F82CC0D2F82C8008FBD9
:103080000C11A0F10B0C54F82CC0D2F8288008FBCE
:103090000C11A0F10A0C54F82CC0D2F8248008FBC3
:1030A0000C11A0F1090C54F82CC0D2F8208008FBB8
:1030B0000C11A0F1080C54F82CC0D2F81C8008FBAD
:1030C0000C11A0F1070C54F82CC0D2F8188008FBA2
:1030D0000C11A0F1060C54F82CC0D2F8148008FB97
:1030E0000C11A0F1050C54F82CC0D2F8108008FB8C
:1030F0000C11A0F1040C54F82CC0D2F80C8008FB81
:103100000C11A0F1030C54F82CC0D2F8088008FB75
:103110000C11A0F1020C54F82CC0D2F8048008FB6A
:103120000C11A0F1010C54F82CC0D2F8008008FB5F
:103130000C1100BF00BF55F8208041FA07FCC444C1
:1031400044F820C0401CB042FFF6CCAEBDE8F08190
:103150002DE9FF4F9BB081468A469046299F1E98D5
:103160000C287DD81E9808287BD91E980A2879D962
:103170001E980C2877D1002487E0002005460646DB
:10318000A4F10C0057F82000D8F82C1081FB002186
:1031900055194E41A4F10B0057F82000D8F828101B
:1031A00081FB002155194E41A4F10A0057F8200077
:1031B000D8F8241081FB002155194E41A4F10900D3
:1031C00057F82000D8F8201081FB002155194E41F6
:1031D000A4F1080057F82000D8F81C1081FB00214A
:1031E00055194E41E01F57F82000D8F8181081FB00
:1031F00000104D194641A01F57F82000D8F81410B0
:1032000081FB002155194E41601F57F82000D8F866
:10321000101081FB002155194E41201F57F8200046
:10322000D8F80C1081FB002155194E41E01E57F8CB
:103230002000D8F8081081FB002155194E41A01E2E
:1032400057F82000D8F8041081FB00104D194641B2
:10325000601E57F82000D8F8001081FB002103E021
:1032600087E376E193E014E055194E4159F824B014
:10327000289A28463146CDE90165FDF76BF81BEB2E
:10328000000047F8240004F101045445FFF675AF2F
:1032900020E2002478E0002005460646A4F10B0059
:1032A00057F82000D8F8281081FB002155194E410D
:1032B000A4F10A0057F82000D8F8241081FB00215F
:1032C00055194E41A4F1090057F82000D8F82010F4
:1032D00081FB002155194E41A4F1080057F8200048
:1032E000D8F81C1081FB002155194E41E01F57F8FA
:1032F0002000D8F8181081FB002155194E41A01F5D
:1033000057F82000D8F8141081FB002155194E41C0
:10331000601F57F82000D8F8101081FB00104D19DD
:103320004641201F57F82000D8F80C1081FB0010F0
:103330004D194641E01E57F82000D8F8081081FBCF
:10334000002155194E41A01E57F82000D8F804104E
:1033500081FB00104D194641601E57F82000D8F837
:10336000001081FB00104D19464159F824B0289AED
:1033700028463146CDE90365FCF7ECFF1BEB000066
:1033800047F8240004F10104544584DB80E71E98CB
:103390000A2874D100246EE0002005460646A4F1F8
:1033A0000A0057F82000D8F8241081FB00104D19AE
:1033B0004641A4F1090057F82000D8F8201081FBFD
:1033C00000104D194641A4F1080057F82000D8F824
:1033D0001C1081FB002155194E41E01F57F82000B9
:1033E000D8F8181081FB00104D194641A01F57F85E
:1033F0002000D8F8141081FB00104D194641601FC1
:1034000057F82000D8F8101081FB00104D194641E4
:10341000201F57F82000D8F80C1081FB00104D1920
:103420004641E01E57F82000D8F8081081FB001034
:103430004D194641A01E57F82000D8F8041081FB12
:1034400000104D194641601E57F82000D8F80010B2
:1034500081FB00104D19464159F824B0289A28469E
:103460003146CDE90565FCF775FF1BEB000047F819
:10347000240004F1010454458EDBF0E3FFE700244F
:1034800064E0002005460646A4F1090057F8200034
:10349000D8F8201081FB002155194E41A4F10800F5
:1034A00057F82000D8F81C1081FB00104D19464138
:1034B000E01F57F82000D8F8181081FB002155199B
:1034C0004E41A01F57F82000D8F8141081FB0021AE
:1034D00055194E41601F57F82000D8F8101081FB95
:1034E00000104D194641201F57F82000D8F80C1045
:1034F00081FB00104D194641E01E57F82000D8F816
:10350000081081FB00104D194641A01E57F82000FD
:10351000D8F8041081FB00104D194641601E57F881
:103520002000D8F8001081FB00104D19464159F8D1
:1035300024B0289A28463146CDE90765FCF70AFFF2
:103540001BEB000047F8240004F10104544598DB0C
:1035500085E31E9804287DD91E9806287BD91E98DD
:1035600008285FD100245AE000210D460E46A4F140
:10357000080057F82000D8F81C1081FB00104D19E6
:103580004641E01F57F82000D8F8181081FB0010C2
:103590004D194641A01F57F82000D8F8141081FBA0
:1035A00000104D194641601F57F82000D8F8101040
:1035B00081FB00104D194641201F57F82000D8F814
:1035C0000C1081FB00104D194641E01E57F82000F9
:1035D000D8F8081081FB00104D194641A01E57F87D
:1035E0002000D8F8041081FB00104D194641601EE0
:1035F00057F82000D8F8001081FB00104D19464103
:1036000059F824B0289A28463146CDE90965FCF7D7
:10361000A1FE1BEB000047F8240004F1010454450F
:10362000A2DB1CE3002453E0002005460646E01F11
:1036300057F82000D8F8181081FB00104D194641AA
:10364000A01F57F82000D8F8141081FB00104D1966
:10365000464101E0D3E03EE0601F57F82000D8F873
:10366000101081FB00104D194641201F57F8200013
:10367000D8F80C1081FB00104D194641E01E57F898
:103680002000D8F8081081FB00104D194641A01EFB
:1036900057F82000D8F8041081FB00104D1946415E
:1036A000601E57F82000D8F8001081FB00104D195B
:1036B000464159F824B0289A28463146CDE90B6591
:1036C000FCF748FE1BEB000047F8240004F101045E
:1036D0005445A9DBC3E21E9806284CD1002447E0DC
:1036E000002005460646A01F57F82000D8F8141001
:1036F00081FB00104D194641601F57F82000D8F893
:10370000101081FB00104D194641201F57F8200072
:10371000D8F80C1081FB00104D194641E01E57F8F7
:103720002000D8F8081081FB00104D194641A01E5A
:1037300057F82000D8F8041081FB00104D194641BD
:10374000601E57F82000D8F8001081FB00104D19BA
:10375000464159F824B0289A28463146CDE90D65EE
:10376000FCF7F8FD1BEB000047F8240004F101040E
:103770005445B5DB73E200243EE000210D460E46C1
:10378000601F57F82000D8F8101081FB00104D1969
:103790004641201F57F82000D8F80C1081FB00107C
:1037A0004D194641E01E57F82000D8F8081081FB5B
:1037B00000104D194641A01E57F82000D8F80410FB
:1037C00081FB00104D194641601E57F82000D8F8C3
:1037D000001081FB00104D19464159F824B0289A79
:1037E00028463146CDE90F65FCF7B4FD1BEB000020
:1037F00047F8240004F101045445BEDB2FE21E9873
:10380000022870D91E9804283AD1002435E00020FF
:1038100005460646201F57F82000D8F80C1081FBFB
:1038200000104D194641E01E57F82000D8F8081046
:1038300081FB00104D194641A01E57F82000D8F812
:10384000041081FB00104D194641601E57F82000FE
:10385000D8F8001081FB00104D19464159F824B0EA
:10386000289A28463146CDE91165FCF773FD1BEB1C
:10387000000047F8240004F101045445C7DBEEE1E1
:1038800000242CE0002005460646E01E57F82000E4
:10389000D8F8081081FB00104D194641A01E57F8BA
:1038A0002000D8F8041081FB00104D194641601E1D
:1038B00057F82000D8F8001081FB00104D19464140
:1038C00059F824B0289A28463146CDE91365FCF70B
:1038D00041FD1BEB000047F8240004F101045445AE
:1038E000D0DBBCE1FFE71E98022828D1002423E0AA
:1038F000002005460646A01E57F82000D8F8041000
:1039000081FB00104D194641601E57F82000D8F881
:10391000001081FB00104D19464159F824B0289A37
:1039200028463146CDE91565FCF714FD1BEB000078
:1039300047F8240004F101045445D9DB8FE1002449
:1039400014E0601E57F82000D8F8001081FB00102A
:10395000289ACDE9170108461799FCF7FBFC59F89E
:103960002410401847F8240004F101045445E8DB12
:1039700075E1002470E100252E461E980D381428AC
:103980007ED2DFE800F0DDD2C7BCB1A69B9085787F
:103990006D62574C41362B20150AA4F1200057F8D0
:1039A0002000D8F87C1081FB00104D19464100BF63
:1039B000A4F11F0057F82000D8F8781081FB001000
:1039C0004D19464100BFA4F11E0057F82000D8F859
:1039D000741081FB00104D19464100BFA4F11D0079
:1039E00057F82000D8F8701081FB00104D1946419F
:1039F00000BFA4F11C0057F82000D8F86C1081FB20
:103A000000104D19464100BFA4F11B0057F82000DB
:103A1000D8F8681081FB00104D19464100BFA4F191
:103A20001A0057F82000D8F8641081FB00104D19D7
:103A3000464100BFA4F1190057F82000D8F86010E3
:103A400081FB00104D19464100BFA4F1180057F842
:103A50002000D8F85C1081FB00104D19464100BFD2
:103A6000A4F1170057F82000D8F8581081FB001077
:103A70004D19464100BFA4F1160057F8200000E0A0
:103A8000DAE0D8F8541081FB00104D19464100BF10
:103A9000A4F1150057F82000D8F8501081FB001051
:103AA0004D19464100BFA4F1140057F82000D8F882
:103AB0004C1081FB00104D19464100BFA4F11300CA
:103AC00057F82000D8F8481081FB00104D194641E6
:103AD00000BFA4F1120057F82000D8F8441081FB71
:103AE00000104D19464100BFA4F1110057F8200005
:103AF000D8F8401081FB00104D19464100BFA4F1D9
:103B0000100057F82000D8F83C1081FB00104D1928
:103B1000464100BFA4F10F0057F82000D8F8381034
:103B200081FB00104D19464100BFA4F10E0057F86B
:103B30002000D8F8341081FB00104D19464100BF19
:103B4000A4F10D0057F82000D8F8301081FB0010C8
:103B50004D194641A4F10C0057F82000D8F82C105C
:103B600081FB00104D194641A4F10B0057F82000CD
:103B7000D8F8281081FB00104D194641A4F10A0025
:103B800057F82000D8F8241081FB00104D19464149
:103B9000A4F1090057F82000D8F8201081FB00108C
:103BA0004D194641A4F1080057F82000D8F81C1020
:103BB00081FB00104D194641E01F57F82000D8F84E
:103BC000181081FB00104D194641A01F57F8200026
:103BD000D8F8141081FB00104D194641601F57F8AA
:103BE0002000D8F8101081FB00104D194641201F0D
:103BF00057F82000D8F80C1081FB00104D194641F1
:103C0000E01E57F82000D8F8081081FB00104D196D
:103C10004641A01E57F82000D8F8041081FB001080
:103C20004D194641601E57F82000D8F8001081FB5E
:103C300000104D19464100BF00BF59F824B0289A22
:103C400028463146CDE91965FCF784FB1BEB0000E3
:103C500047F8240004F101045445FFF68CAE1FB070
:103C6000BDE8F08F2DE9FF4F81B01746DDF83C80AD
:103C7000002468E200252E46049821287ED2DFE841
:103C800000F07DFCFBFAF9F8F7F6F5F4F3F2F1F049
:103C9000EFEEEDECEBEAE3D2C0AF9E8C79685645CF
:103CA00033221100F86F4FEAE07CA4F1200208EB08
:103CB000C2030CCBA0FB02190CFB029200FB0320F9
:103CC0004D19464100BFB86FC217A4F11F0108EBA0
:103CD000C101D1E9003CA0FB031902FB039200FBE8
:103CE0000C204D19464100BF786F4FEAE07CA4F1EB
:103CF0001E0208EBC202D2E90032A0FB03190CFB42
:103D0000039300FB02304D19464100BF386FC217C4
:103D1000A4F11D0108EBC101D1E9003CA0FB03198E
:103D200002FB039200FB0C204D19464100BFF86EC8
:103D3000C117A4F11C0208EBC202D2E9003C0A46FA
:103D4000A0FB031902FB039200FB0C204D19464116
:103D500000BFB86EC217A4F11B0108EBC101D1E985
:103D6000003CA0FB031902FB039200FB0C204D1941
:103D7000464100BF786E4FEAE07C00E0CDE1A4F15F
:103D80001A0208EBC2030CCBA0FB02190CFB029237
:103D900000FB03204D19464100BF386E4FEAE07C1E
:103DA000A4F1190208EBC202D2E90032A0FB031908
:103DB0000CFB039300FB02304D19464100BFF86D28
:103DC0004FEAE07CA4F1180208EBC2030CCBA0FB85
:103DD00002190CFB029200FB03204D19464100BF63
:103DE000B86DC217A4F1170108EBC101D1E9003C7D
:103DF000A0FB031902FB039200FB0C204D19464166
:103E000000BF786D4FEAE07CA4F1160208EBC20215
:103E1000D2E90032A0FB03190CFB039300FB023034
:103E20004D19464100BF386DC217A4F1150108EBCA
:103E3000C101D1E9003CA0FB031902FB039200FB86
:103E40000C204D19464100BFF86CC117A4F11402B3
:103E500008EBC20212E01DE02EE03EE04FE05FE022
:103E600070E080E090E0A0E0B0E0C0E0D0E0E0E012
:103E7000F0E000E10FE11EE12DE13DE1D2E9003C7F
:103E80000A46A0FB031902FB039200FB0C204D190C
:103E9000464100BFB86C4FEAE07CA4F1130208EB86
:103EA000C202D2E90032A0FB03190CFB039300FB12
:103EB00002304D19464100BF786CC317A4F11202BD
:103EC00008EBC202D2E900C2A0FB0C1903FB0C9361
:103ED00000FB02304D19464100BF386C4FEAE07CD0
:103EE000A4F1110208EBC202D2E90032A0FB0319CF
:103EF0000CFB039300FB02304D19464100BFF86BE9
:103F00004FEAE07CA4F1100208EBC2030CCBA0FB4B
:103F100002190CFB029200FB03204D19464100BF21
:103F2000B86B4FEAE07CA4F10F0208EBC202D2E9C1
:103F30000032A0FB03190CFB039300FB02304D1968
:103F4000464100BF786BC317A4F10E0208EBC20212
:103F5000D2E900C2A0FB0C1903FB0C9300FB02305A
:103F60004D19464100BF386BC117A4F10D0208EB93
:103F7000C202D2E9003CA0FB032901FB039100FB34
:103F80000C105519464100BFF86AC217A4F10C0184
:103F900008EBC101D1E9003CA0FB031902FB03922D
:103FA00000FB0C204D19464100BFB86AC217A4F1AE
:103FB0000B0108EBC101D1E900C3A0FB0C1902FB06
:103FC0000C9200FB03204D19464100BF786AC217CE
:103FD000A4F10A0108EBC103D3E900C3A0FB0C194B
:103FE00002FB0C9200FB03204D19464100BF386ACA
:103FF000C217A4F1090108EBC101D1E9003CA0FB03
:10400000031902FB039200FB0C204D19464100BF2F
:10401000F8694FEAE07CA4F1080208EBC2030CCB7C
:10402000A0FB02190CFB029200FB03204D19464134
:1040300000BFB869C117E21F08EBC202D2E900C392
:104040000A46A0FB0C1902FB0C9200FB03204D1941
:10405000464100BF7869C117A21F08EBC202D2E92E
:10406000003C0A46A0FB031902FB039200FB0C2054
:104070004D19464100BF3869C217611F08EBC101E5
:10408000D1E9003CA0FB031902FB039200FB0C20CA
:104090004D19464100BFF868C117221F08EBC20343
:1040A000D3E900C3A0FB0C2901FB0C9100FB03101A
:1040B0005519464100BFB868C217E11E08EBC1019F
:1040C000D1E9003CA0FB031902FB039200FB0C208A
:1040D0004D19464100BF7868C117A21E08EBC20205
:1040E000D2E900C30A46A0FB0C1902FB0C9200FBAC
:1040F00003204D19464100BF3868C117621E08EB06
:10410000C202D2E900C30A46A0FB0C1902FB0C92C2
:1041100000FB03204D19464100BF00BF019850F835
:1041200024904FEAE97AAB460E9A584631460096FB
:10413000FCF710F919EB00004AEB010A08EBC40187
:10414000C1E9000A641C02988442FFF693AD05B0F1
:10415000BDE8F08F2DE9F04106460F46354605B91A
:104160006D1C284608F074F8044600BF3C602046E9
:10417000BDE8F081F8B506460C461746B6F1804F0B
:1041800001D30020F8BDB0006946FFF7E3FF054604
:104190000DB90020F6E7206810B1206808F02AF871
:1041A0002560009838600120ECE770B5044604B93A
:1041B00070BD204600F026F86068D0F8580420B1A1
:1041C0006168D1F8580408F015F86168C86AFDF70D
:1041D000A6FA002508E06168783105EB450201EB9D
:1041E0008200FEF797FA6D1C082DF4D3606808F082
:1041F00001F8206807F0FEFF204607F0FBFF00BF34
:10420000D6E7000070B5044600262068007809282B
:1042100001D1012070BD41F28C236268D11841F2B6
:10422000EC23D018FCF7A9FD6168D1F8BC0107F0B8
:10423000E1FF00216068C0F8BC1100206168C1F88E
:10424000F4006168C86AFDF773FA00252CE0606825
:10425000303050F8250060B16168303151F82510D8
:10426000A1F1100007F0C6FF00216068303040F86F
:10427000251041F25C216068084450F8250090B197
:1042800041F25C226168114451F8250007F0B2FF49
:1042900000216068503040F8251041F25C226068CF
:1042A000104440F825106D1C082DD0D36068006FB5
:1042B00030B16168086F07F09DFF002061680867F2
:1042C00000206168C1F8D8006168C1F8DC0060684E
:1042D000806A58B16068806A1849884203D0616872
:1042E000886A4FF0FF30002061688862606800F5DE
:1042F0008050D0F87C0250B141F2EC236268D118B2
:1043000002F598701022FCF789F800B1012600210F
:10431000606800F58050C0F88412606800F5805035
:10432000C0F8881220460EF08BF909202168087029
:104330000EB901206EE700206CE7000038A00024D1
:1043400070B504460025206800780A2801D00120B5
:1043500070BD41F28C236268D11841F2EC23D01871
:10436000FCF70BFD606800F58050D0F87C0250B17E
:1043700041F2EC236268D11802F598701022FCF724
:104380004DF800B1012520460DF000FD0DB90120CA
:10439000DEE70020DCE710B50446606800F58050D9
:1043A000D0F8800228B920680078092801D10020BF
:1043B00010BD20680078082801D10020F8E700210E
:1043C000626842F8E81F5160606800F58050C0F8EC
:1043D0007C1200224FF4035360681A5000F500501D
:1043E000C0F8C420606800F50050C0F8B0106168E3
:1043F000C86AFDF788F920B90820216808700020F4
:10440000D6E70220216808700120D1E770B5044684
:104410000D4600BF6068C06808B9002070BD6068C4
:104420002946C368426A2046984708B10020F5E74C
:104430006168C86AFDF7E6F908B90020EEE7204692
:1044400000F009F8D5E90031181A61F10001C5E959
:1044500000010120E2E710B504466168C86AFDF773
:104460007CF9C00810BD2DE9FF4F87B004460D460A
:10447000164615AF97E8800F0020CDE904ABCDF8C4
:104480000C90069014988DE881013246294620460A
:104490000A9B0AF0A7FF0BB0BDE8F08F70B50821AA
:1044A00001200DF0D4FC04460CB9002070BD1C2185
:1044B00001200DF0CCFC2060206820B9204607F0D8
:1044C00099FE0020F2E742F2E00101200DF0BFFC6E
:1044D0006060606838B9206807F08CFE204607F0FD
:1044E00089FE0020E2E7FDF79DF96168C862606817
:1044F000C06A50B9606807F07DFE206807F07AFE58
:10450000204607F077FE0020D0E710206168C1F850
:1045100060042A490968C9086268D2F8602401FB6E
:1045200002F007F095FE6168C1F8580470B961683F
:10453000C86AFDF7F4F8606807F05CFE206807F0D1
:1045400059FE204607F056FE0020AFE700250FE099
:1045500000216068303040F825106068503040F825
:10456000251041F25C226068104440F825106D1C53
:10457000082DEDD30020616808676168C1F8D80094
:104580006168C1F8DC006168C1F8F400002508E04A
:104590006168783105EB450201EB8200FEF7F1F826
:1045A0006D1C082DF4D300206168886220460EF04F
:1045B00047F8092021680870204677E748ED039006
:1045C00010B5044622E0206800780B281BD2DFE8F3
:1045D00000F0060D1415161A1A181A1A170020469C
:1045E00009F06EFC08B9002010BD0EE020460BF06B
:1045F000DFFF08B90020F7E707E000BF00BF00BFFA
:1046000000BF0120F0E70020EEE700BFDBE738B590
:1046100004463BE0206800780B2834D2DFE800F045
:10462000060D14233033333133332C00204609F088
:1046300047FC08B9002038BD27E020460BF0B8FF42
:1046400008B90020F7E720E020460AF057FC48B9F7
:10465000206800780A2805D020680078082801D052
:104660000120E8E711E00122694620460BF00AFA32
:1046700008B90020DFE708E02046FFF761FE04E00C
:1046800000BF0120D7E70020D5E700BFC2E7000048
:1046900038B504462046FFF77EFE08B9002038BD35
:1046A000606800F58050D0F88002B0B96068806A18
:1046B0000C49884201D10020F1E76068806860B150
:1046C0006068406A00906068002213468168204656
:1046D0008847012801D10020E1E720460DF056FB74
:1046E0000120DCE738A00024024610680078092881
:1046F00001D000207047106881610120FAE702466E
:104700007E2901D9002070470123506800F51670FA
:1047100040F82130022903D100205368C3F85C041B
:104720000120F0E730B587B00446214647A007F0E6
:1047300021FD0020494948704949087049490860ED
:10474000494908704949087001222146484808F043
:10475000E5FF05462DB1294646A007F00BFD07B041
:1047600030BDFFF79BFE494908600846006818B94C
:104770003F4808F082FFF2E7002144480068FFF755
:10478000B3FF002141480068FFF7B9FF002040490E
:10479000404A414BCDE904100090CDE9023201902E
:1047A000034602463D4939480068FFF75CFE50B1B8
:1047B0003BA007F0DFFC35480068FFF7F6FC2C480B
:1047C00008F05BFFCBE731480068FFF7F9FE0DF01A
:1047D0003BFC0321002008F026FF0021012008F007
:1047E0007BFE0121084608F00BFF802201210020FA
:1047F0000DF0AAFC01235A032F49A1F580400DF0CA
:104800003FFD164948680DF0EBFC2C482C49086028
:104810000120124948702BA007F0ACFC1B4800682F
:10482000FFF7F5FE2EA007F0A5FC0DF00DFC002013
:104830000A49487015480068FFF7B7FC0C4808F0B3
:104840001CFF00201E49086000BF88E7506C61799A
:10485000696E673A2025730D0A00000004F50024F4
:104860002CA0002428A0002426A0002424A000249A
:1048700010F5002446696C65204F70656E20466116
:10488000696C3A2025640D0A0000000020A0002475
:10489000B1E50090E1E50090F1E6009039E6009086
:1048A0004465636F64657220496E6974204661696E
:1048B0006C65640D0A0000000040002499E6009039
:1048C0001CA000245374617274204465636F646992
:1048D0006E67204C6F6F702E2E2E0D0A00000000A8
:1048E0004465636F64652046696E69736865642E0C
:1048F0000D0A00002DE9F04704460F4690461E467B
:10490000DDF820904FF0000AA068802804D1400014
:1049100060654FF0010AFCE000BF94F83400012804
:1049200002D10220BDE8F087012084F8340000BFE6
:1049300094F8350001287DD1022084F8350000204C
:10494000606575492068884249D0734918312068EC
:10495000884244D070493031206888423FD06E4947
:104960004831206888423AD06B49603120688842DB
:1049700035D0694978312068884230D06649903115
:10498000206888422BD06449A8312068884226D00C
:1049900062492068884222D06049183120688842E4
:1049A0001DD05E4930312068884218D05B494831BB
:1049B0002068884213D059496031206888420ED05F
:1049C000564978312068884209D05449903120688E
:1049D000884204D05149A8312068884201D1012081
:1049E00000E0002090B12068006840F48020216839
:1049F000086020680661A06D00F1080594F85C006D
:104A000000F01F013F208840286011E02068006806
:104A100048F2200108432168086020680661A06D03
:104A2000051D94F85C0000F01F01012088402860FB
:104A30004B4600E068E0424639462046FCF79AF8CB
:104A4000D4E919104860E06E10B1D4E91C10486038
:104A500031492068884249D02F491831206888425E
:104A600044D02D493031206888423FD02A4948310E
:104A7000206888423AD0284960312068884235D081
:104A8000254978312068884230D023499031206808
:104A900088422BD02049A8312068884226D01F495F
:104AA0002068884222D01D491831206888421DD0D4
:104AB0001A4930312068884218D018494831206896
:104AC000884213D015496031206888420ED01349BE
:104AD00078312068884209D0104990312068884296
:104AE00004D00E49A8312068884206D120680068A9
:104AF00040F00100216808600BE02068006840F089
:104B000001002168086004E04FF4006060654FF028
:104B1000010A504606E7000010000240100402405F
:104B200070B504460CB9012070BD9B4920688842CD
:104B300049D0994918312068884244D0964930318B
:104B4000206888423FD094494831206888423AD052
:104B5000914960312068884235D08F49783120688A
:104B6000884230D08C499031206888422BD08A49C5
:104B7000A8312068884226D088492068884222D0FF
:104B800086491831206888421DD084493031206818
:104B9000884218D0814948312068884213D07F4923
:104BA0006031206888420ED07C4978312068884284
:104BB00009D07A4990312068884204D07749A831D9
:104BC0002068884206D12068006820F00100216832
:104BD000086005E02068006820F001002168086096
:104BE0006D492068884249D06B4918312068884255
:104BF00044D069493031206888423FD06649483105
:104C0000206888423AD0644960312068884235D0B3
:104C1000614978312068884230D05F4990312068FE
:104C200088422BD05C49A8312068884226D05B4955
:104C30002068884222D059491831206888421DD006
:104C4000564930312068884218D05449483120688C
:104C5000884213D051496031206888420ED04F49B4
:104C600078312068884209D04C49903120688842C8
:104C700004D04A49A8312068884201D1012000E0CF
:104C80000020C8B1002021680860216848602168C0
:104C900088602168C8602168086121202168486116
:104CA0002046FBF7EBFD064694F85C0000F01F0180
:104CB0003F208840B06043E039492068884222D0D4
:104CC00037491431206888421DD035492831206881
:104CD000884218D032493C312068884213D030498C
:104CE0005031206888420ED02D49643120688842B6
:104CF00009D02B4978312068884204D028498C316A
:104D00002068884201D1012000E00020B0B10020DD
:104D10002168086021684860216888602168C8604F
:104D2000216808612046FBF7A9FD054694F85C0060
:104D300000F01F0101208840686001E00120F3E6D7
:104D40002046FBF711FE206E28B10020216E08607E
:104D5000D4E919104860606858B16068082808D81C
:104D60002046FBF763FE0020E16E0860D4E91C10CA
:104D700048600020E06620676067E063206460644C
:104D8000A064E0642065606584F8350000BF84F8A5
:104D9000340000BF00BFC7E610000240100402400C
:104DA000085402582DE9F041044600F0DDFA80462F
:104DB00014B90120BDE8F081D4492068884249D067
:104DC000D24918312068884244D0D0493031206817
:104DD00088423FD0CD494831206888423AD0CB49FB
:104DE00060312068884235D0C849783120688842CF
:104DF00030D0C6499031206888422BD0C349A831B1
:104E00002068884226D0C2492068884222D0C04902
:104E10001831206888421DD0BD4930312068884251
:104E200018D0BB4948312068884213D0B849603156
:104E3000206888420ED0B64978312068884209D06F
:104E4000B34990312068884204D0B149A831206824
:104E5000884201D1012000E00020002873D0606A60
:104E600000B100BF00BF002084F8340000BF022062
:104E700084F83500A5492068884249D0A3491831F3
:104E80002068884244D0A1493031206888423FD010
:104E90009E494831206888423AD09C496031206858
:104EA000884235D0994978312068884230D0974976
:104EB0009031206888422BD09449A83120688842DC
:104EC00026D093492068884222D091491831206821
:104ED00088421DD08E4930312068884218D08C49D4
:104EE00048312068884213D089496031206888425F
:104EF0000ED0874978312068884209D084499031A2
:104F00002068884204D08249A8312068884206D1AE
:104F10002068006820F001002168086005E0206832
:104F2000006820F00100216808600DE000F01CFA24
:104F3000A0EB0800052807D920206065032084F82D
:104F40003500012036E745E02068006800F00100E8
:104F50000028EBD1206805686E480540D4E90201BD
:104F600008432169084361690843A1690843E1696D
:104F70000843216A08430543606A042803D1D4E941
:104F80000B0108430543206805602068456925F04A
:104F90000705606A0543606A04280DD1A06A0543CD
:104FA000E06A48B12046FBF78DFD28B140206065DE
:104FB000012084F83500FDE6206845612046FBF7B6
:104FC0005DFC064694F85C0000F01F013F2088401D
:104FD000B06073E050492068884222D04E491431B5
:104FE000206888421DD04C4928312068884218D05A
:104FF00049493C312068884213D0474950312068E4
:1050000088420ED0444964312068884209D0424920
:1050100078312068884204D03F498C31206888422A
:1050200001D1012000E00020F0B300BF002084F88F
:10503000340000BF022084F8350020680568374836
:105040000540A068402801D1102105E0A068802813
:1050500001D1C10100E00021E06841EAD0012069EE
:1050600041EAD001606941EAD001A06941EAD0017A
:10507000E06941EAD001206A41EA10100543206846
:10508000056025492068401A1421B0FBF1F080002A
:10509000E0652046FBF7F2FB074694F85C0000F061
:1050A0001F010120884000E001E0786006E0402018
:1050B0006065032084F8350001207BE62046FBF77D
:1050C00053FCA068802801D1002060602079216E07
:1050D0000860D4E919104860606860B16068082809
:1050E00009D82046FBF7A2FC0020E16E0860D4E955
:1050F0001C10486003E00020E06620676067002025
:105100006065012084F83500002053E6100002405D
:10511000100402403F8010FE085402580F00FEFFAA
:1051200070B5044600F020F906462546681C10B10B
:1051300004480078054400BF00F016F9801BA8421F
:10514000FAD370BD10A00024F8B502460023734DB9
:10515000DEE001279F400E6806EA0704002C71D0AC
:105160004E68022E02D04E68122E13D1DF0802F1D3
:10517000200656F827005E07F70E0F26BE40B04304
:105180005F07FF0E0E69BE403043DF0802F12006C4
:1051900046F8270010685F000326BE40B0430E7932
:1051A00006F003065F00BE40304310604E68012EDB
:1051B00008D04E68022E05D04E68112E02D04E68DF
:1051C000122E13D190685F000326BE40B0435F00EB
:1051D000CE68BE4030439060506801269E40B04388
:1051E0000E79C6F300169E4030435060D0685F00D1
:1051F0000326BE40B0435F008E68BE403043D0609F
:105200004E6806F08056B6F1805F1BD100BF444E59
:10521000366846F00206424F3E603E46366806F06B
:105220000206009600BF00BF3E4E9F0856F82700BA
:105230009E07370F0F26BE40B0433B4EB24202D10D
:1052400000262EE063E0394EB24201D1012628E06B
:10525000374EB24201D1022623E0364EB24201D18E
:1052600003261EE0344EB24201D1042619E0334E2B
:10527000B24201D1052614E0314EB24201D10626D8
:105280000FE0304EB24201D107260AE02E4EB24264
:1052900001D1082605E02D4EB24201D1092600E0D9
:1052A0000A269F073F0FBE4030431E4E9F0846F818
:1052B00027002868A0434E6806F48036B6F5803F84
:1052C00000D1204328606868A0434E6806F4003689
:1052D000B6F5003F00D1204368604FF0B04630681B
:1052E000A0434E6806F48016B6F5801F00D1204317
:1052F0004FF0B04630607068A0434E6806F4001668
:10530000B6F5001F00D120434FF0B04670605B1C23
:105310000E68DE40002E7FF41CAFF8BD8000005800
:10532000F4440258080400580000025800040258CF
:1053300000080258000C02580010025800140258CD
:1053400000180258001C025800200258002402587D
:105350000AB1816101E00B04836170470148006874
:10536000000C70470010005C044840680449B0FB22
:10537000F1F04FF47A71484370470000001000E0EC
:1053800000389C1C024692F8410020282DD100BF15
:1053900092F84000012801D102207047012082F8D4
:1053A000400000BF242082F841001068006820F00F
:1053B0000100136818601068006820F480501368BA
:1053C0001860106800680843136818601068006867
:1053D00040F0010013681860202082F8410000BFEF
:1053E000002082F8400000BFD7E70220D5E710B5C3
:1053F00004460CB9012010BD242084F84100206827
:10540000006820F0010021680860204600F0FEF9E5
:105410000020606484F84100206384F8420000BFEB
:1054200084F8400000BF00BFE5E7014691F8410065
:105430007047000010B504460CB9012010BD94F867
:10544000410028B9002084F84000204600F0DFF930
:10545000242084F841002068006820F001002168C1
:105460000860606820F070602168086120688068CA
:1054700020F4004021688860E068012805D1A06818
:1054800040F400402168886004E0A06840F40440D3
:1054900021688860E068022802D1800221684860A3
:1054A0002068406813490843216848602068C06844
:1054B00020F400402168C860D4E904010843A169D0
:1054C00040EA01202168C860D4E907010843216847
:1054D00008602068006840F0010021680860002032
:1054E0006064202084F841000020206384F842009A
:1054F00000BFA3E7008000022DE9FC4704460F46E9
:1055000090461E460020019094F84100202872D158
:1055100020688069C0F3C03010B10220BDE8FC876C
:1055200000BF94F84000012801D10220F6E70120D5
:1055300084F8400000BF242084F84100002060640B
:1055400000BFE068012806D1C7F3090040F400500D
:1055500040F0007003E0C7F3090040F420502168D8
:105560004860FFF701FF054620688069C0F34019D5
:1055700020688069C0F3001A1DE0701C98B1FFF725
:10558000F3FE401BB04200D86EB9202084F84100E1
:10559000606C40F02000606400BF002084F8400090
:1055A00000BF0120BAE720688069C0F34019206875
:1055B0008069C0F3001AB9F1000F02D1BAF1000FEF
:1055C000DBD020688069C0F30010A8B93346002200
:1055D00020212046009503F0C9FB08B101209DE77A
:1055E00020202168C86184F8410000BF002084F8B1
:1055F000400000BF92E73AE03346002220212046D7
:10560000009503F0B3FB08B1012087E71020216863
:10561000C86120202168C8610198404512D12068E6
:10562000406840F4804021684860334600222021D1
:105630002046009503F09AFB08B101206EE7202078
:105640002168C8610198401C019001984045FFF411
:1056500078AF202084F84100606C40F02000606446
:1056600000BF002084F8400000BF012056E7022060
:1056700054E700002DE9FC5F0446894692469B46AC
:10568000DDE90C780E9E94F8410020287DD117B1F9
:10569000B8F1000F05D14FF4007060640120BDE83F
:1056A000FC9F00BF94F84000012801D10220F6E7DA
:1056B000012084F8400000BFFFF756FE054619237D
:1056C0000122D1032046009503F050FB08B10120D0
:1056D000E5E7212084F84100402084F842000020C2
:1056E00060646762A4F82A8060635B46524649465C
:1056F0002046CDE9006503F0E1FA30B100BF00209B
:1057000084F8400000BF0120C9E7608DFF280CD954
:10571000FF2020850020009094F828204FF080730F
:105720004946204603F008FB0BE0608D20850020F1
:10573000009094F828204FF000734946204603F06B
:10574000FBFA00BF2A463146204603F069FB08B148
:105750000120A4E7606A007821688862606A401CC2
:105760006062608D401E6085208D401E2085608DAA
:1057700040B3208D30BB3346002280212046009567
:1057800003F0F4FA10B1012089E73AE0608DFF28B8
:105790000CD9FF2020850020009094F828204FF09D
:1057A00080734946204603F0C7FA0BE0608D2085E0
:1057B0000020009094F828204FF0007349462046BE
:1057C00003F0BAFA608D0028BCD12A463146204643
:1057D00003F0FBFA08B1012061E720202168C861CD
:1057E000206840680849084021684860202084F803
:1057F0004100002084F8420000BF84F8400000BF50
:105800004DE702204BE7000000E800FE70477047BC
:105810000348006803490978084401490860704753
:1058200008A0002410A0002401460848006840F0A9
:105830008070064A10600020054A506010460068DB
:1058400040F001001060002070470000FCED00E017
:10585000001000E001460846002809DB00F01F03A5
:1058600001229A4043099B0003F1E023C3F8002181
:1058700000BF70472DE9F05F80460D46164606F0E2
:105880009DFC074639462A46334601F00700C0F121
:10589000070ABAF1040F02D94FF0040A01E0C0F17F
:1058A000070AD14600F1040ABAF1070F02D24FF0FD
:1058B000000A01E0A0F1030AD4464FF0010A0AFAF7
:1058C00009FAAAF1010A0AEA020A0AFA0CFA4FF0E6
:1058D000010B0BFA0CFBABF1010B0BEA030B4AEAD1
:1058E0000B042146404606F071FCBDE8F09F000025
:1058F00070B504461548006800F00400042807D07D
:105900001248006800F00700A04201D0012070BDDD
:105910000E48006820F0070020430C490860FFF79C
:1059200023FD054607E0FFF71FFD401BB0F57A7F1A
:1059300001D90320EBE705480838006800F400505F
:10594000B0F5005FEFD10020E1E700000C480258FD
:1059500010B501F063FC07490968C1F30321064A49
:10596000515C01F01F01C840044908600846006806
:1059700010BD000018440258362C019000A00024ED
:1059800010B501F00FFC05490968C1F30211044A82
:10599000515C01F01F01C84010BD000020440258B6
:1059A000362C019070B50146844D2D6805F0030337
:1059B000824D2D68C5F30510804D2D1D2D6805F015
:1059C00001047E4D0C352D68C5F3CC0515FB04F59F
:1059D00001EE105AB8EE411AF0EE410A00286FD0DD
:1059E00023B1012B4ED0022B6BD16BE0734D283DC0
:1059F0002D68C5F340153DB3704D283D2D68C5F3A6
:105A0000C1066F4D25FA06F201EE102AF8EE411A92
:105A100001EE100AB8EE411A81EE812A9FED691A53
:105A2000C0EE811A654D08352D68C5F3080501EEF5
:105A3000105AB8EE411A31EE811AF7EE001A31EE23
:105A4000211A22EE010A1CE001EE100AB8EE411AFA
:105A5000DFED5D1A81EE812A9FED5A1AC0EE811AA0
:105A6000564D08352D68C5F3080501EE105AB8EEFD
:105A7000411A31EE811AF7EE001A31EE211A22EEA8
:105A8000010A5BE001EE100AB8EE411ADFED4F1A91
:105A900081EE812A9FED4B1AC0EE811A474D0835E1
:105AA0002D68C5F3080501EE105AB8EE411A31EE23
:105AB000811AF7EE001A31EE211A22EE010A3DE0BA
:105AC00077E01DE001EE100AB8EE411A9FED402A82
:105AD000C2EE011A9FED3B1A80EE812A374D083540
